{
  "_format": "hh-sol-artifact-1",
  "contractName": "EcoBadgeNFT",
  "sourceName": "contracts/EcoBadgeNFT.sol",
  "abi": [
    {
      "inputs": [
        {
          "internalType": "address",
          "name": "initialOwner",
          "type": "address"
        }
      ],
      "stateMutability": "nonpayable",
      "type": "constructor"
    },
    {
      "inputs": [
        {
          "internalType": "address",
          "name": "sender",
          "type": "address"
        },
        {
          "internalType": "uint256",
          "name": "tokenId",
          "type": "uint256"
        },
        {
          "internalType": "address",
          "name": "owner",
          "type": "address"
        }
      ],
      "name": "ERC721IncorrectOwner",
      "type": "error"
    },
    {
      "inputs": [
        {
          "internalType": "address",
          "name": "operator",
          "type": "address"
        },
        {
          "internalType": "uint256",
          "name": "tokenId",
          "type": "uint256"
        }
      ],
      "name": "ERC721InsufficientApproval",
      "type": "error"
    },
    {
      "inputs": [
        {
          "internalType": "address",
          "name": "approver",
          "type": "address"
        }
      ],
      "name": "ERC721InvalidApprover",
      "type": "error"
    },
    {
      "inputs": [
        {
          "internalType": "address",
          "name": "operator",
          "type": "address"
        }
      ],
      "name": "ERC721InvalidOperator",
      "type": "error"
    },
    {
      "inputs": [
        {
          "internalType": "address",
          "name": "owner",
          "type": "address"
        }
      ],
      "name": "ERC721InvalidOwner",
      "type": "error"
    },
    {
      "inputs": [
        {
          "internalType": "address",
          "name": "receiver",
          "type": "address"
        }
      ],
      "name": "ERC721InvalidReceiver",
      "type": "error"
    },
    {
      "inputs": [
        {
          "internalType": "address",
          "name": "sender",
          "type": "address"
        }
      ],
      "name": "ERC721InvalidSender",
      "type": "error"
    },
    {
      "inputs": [
        {
          "internalType": "uint256",
          "name": "tokenId",
          "type": "uint256"
        }
      ],
      "name": "ERC721NonexistentToken",
      "type": "error"
    },
    {
      "inputs": [
        {
          "internalType": "address",
          "name": "owner",
          "type": "address"
        }
      ],
      "name": "OwnableInvalidOwner",
      "type": "error"
    },
    {
      "inputs": [
        {
          "internalType": "address",
          "name": "account",
          "type": "address"
        }
      ],
      "name": "OwnableUnauthorizedAccount",
      "type": "error"
    },
    {
      "anonymous": false,
      "inputs": [
        {
          "indexed": true,
          "internalType": "address",
          "name": "owner",
          "type": "address"
        },
        {
          "indexed": true,
          "internalType": "address",
          "name": "approved",
          "type": "address"
        },
        {
          "indexed": true,
          "internalType": "uint256",
          "name": "tokenId",
          "type": "uint256"
        }
      ],
      "name": "Approval",
      "type": "event"
    },
    {
      "anonymous": false,
      "inputs": [
        {
          "indexed": true,
          "internalType": "address",
          "name": "owner",
          "type": "address"
        },
        {
          "indexed": true,
          "internalType": "address",
          "name": "operator",
          "type": "address"
        },
        {
          "indexed": false,
          "internalType": "bool",
          "name": "approved",
          "type": "bool"
        }
      ],
      "name": "ApprovalForAll",
      "type": "event"
    },
    {
      "anonymous": false,
      "inputs": [
        {
          "indexed": true,
          "internalType": "address",
          "name": "previousOwner",
          "type": "address"
        },
        {
          "indexed": true,
          "internalType": "address",
          "name": "newOwner",
          "type": "address"
        }
      ],
      "name": "OwnershipTransferred",
      "type": "event"
    },
    {
      "anonymous": false,
      "inputs": [
        {
          "indexed": true,
          "internalType": "address",
          "name": "from",
          "type": "address"
        },
        {
          "indexed": true,
          "internalType": "address",
          "name": "to",
          "type": "address"
        },
        {
          "indexed": true,
          "internalType": "uint256",
          "name": "tokenId",
          "type": "uint256"
        }
      ],
      "name": "Transfer",
      "type": "event"
    },
    {
      "inputs": [
        {
          "internalType": "address",
          "name": "to",
          "type": "address"
        },
        {
          "internalType": "uint256",
          "name": "tokenId",
          "type": "uint256"
        }
      ],
      "name": "approve",
      "outputs": [],
      "stateMutability": "nonpayable",
      "type": "function"
    },
    {
      "inputs": [],
      "name": "badgeCounter",
      "outputs": [
        {
          "internalType": "uint256",
          "name": "",
          "type": "uint256"
        }
      ],
      "stateMutability": "view",
      "type": "function"
    },
    {
      "inputs": [
        {
          "internalType": "uint256",
          "name": "",
          "type": "uint256"
        }
      ],
      "name": "badgeTraits",
      "outputs": [
        {
          "internalType": "string",
          "name": "activityType",
          "type": "string"
        },
        {
          "internalType": "uint256",
          "name": "points",
          "type": "uint256"
        }
      ],
      "stateMutability": "view",
      "type": "function"
    },
    {
      "inputs": [
        {
          "internalType": "address",
          "name": "owner",
          "type": "address"
        }
      ],
      "name": "balanceOf",
      "outputs": [
        {
          "internalType": "uint256",
          "name": "",
          "type": "uint256"
        }
      ],
      "stateMutability": "view",
      "type": "function"
    },
    {
      "inputs": [
        {
          "internalType": "uint256",
          "name": "tokenId",
          "type": "uint256"
        }
      ],
      "name": "getApproved",
      "outputs": [
        {
          "internalType": "address",
          "name": "",
          "type": "address"
        }
      ],
      "stateMutability": "view",
      "type": "function"
    },
    {
      "inputs": [
        {
          "internalType": "address",
          "name": "owner",
          "type": "address"
        },
        {
          "internalType": "address",
          "name": "operator",
          "type": "address"
        }
      ],
      "name": "isApprovedForAll",
      "outputs": [
        {
          "internalType": "bool",
          "name": "",
          "type": "bool"
        }
      ],
      "stateMutability": "view",
      "type": "function"
    },
    {
      "inputs": [
        {
          "internalType": "address",
          "name": "recipient",
          "type": "address"
        },
        {
          "internalType": "string",
          "name": "activityType",
          "type": "string"
        },
        {
          "internalType": "uint256",
          "name": "points",
          "type": "uint256"
        }
      ],
      "name": "mintBadge",
      "outputs": [],
      "stateMutability": "nonpayable",
      "type": "function"
    },
    {
      "inputs": [],
      "name": "name",
      "outputs": [
        {
          "internalType": "string",
          "name": "",
          "type": "string"
        }
      ],
      "stateMutability": "view",
      "type": "function"
    },
    {
      "inputs": [],
      "name": "owner",
      "outputs": [
        {
          "internalType": "address",
          "name": "",
          "type": "address"
        }
      ],
      "stateMutability": "view",
      "type": "function"
    },
    {
      "inputs": [
        {
          "internalType": "uint256",
          "name": "tokenId",
          "type": "uint256"
        }
      ],
      "name": "ownerOf",
      "outputs": [
        {
          "internalType": "address",
          "name": "",
          "type": "address"
        }
      ],
      "stateMutability": "view",
      "type": "function"
    },
    {
      "inputs": [],
      "name": "renounceOwnership",
      "outputs": [],
      "stateMutability": "nonpayable",
      "type": "function"
    },
    {
      "inputs": [
        {
          "internalType": "address",
          "name": "from",
          "type": "address"
        },
        {
          "internalType": "address",
          "name": "to",
          "type": "address"
        },
        {
          "internalType": "uint256",
          "name": "tokenId",
          "type": "uint256"
        }
      ],
      "name": "safeTransferFrom",
      "outputs": [],
      "stateMutability": "nonpayable",
      "type": "function"
    },
    {
      "inputs": [
        {
          "internalType": "address",
          "name": "from",
          "type": "address"
        },
        {
          "internalType": "address",
          "name": "to",
          "type": "address"
        },
        {
          "internalType": "uint256",
          "name": "tokenId",
          "type": "uint256"
        },
        {
          "internalType": "bytes",
          "name": "data",
          "type": "bytes"
        }
      ],
      "name": "safeTransferFrom",
      "outputs": [],
      "stateMutability": "nonpayable",
      "type": "function"
    },
    {
      "inputs": [
        {
          "internalType": "address",
          "name": "operator",
          "type": "address"
        },
        {
          "internalType": "bool",
          "name": "approved",
          "type": "bool"
        }
      ],
      "name": "setApprovalForAll",
      "outputs": [],
      "stateMutability": "nonpayable",
      "type": "function"
    },
    {
      "inputs": [
        {
          "internalType": "bytes4",
          "name": "interfaceId",
          "type": "bytes4"
        }
      ],
      "name": "supportsInterface",
      "outputs": [
        {
          "internalType": "bool",
          "name": "",
          "type": "bool"
        }
      ],
      "stateMutability": "view",
      "type": "function"
    },
    {
      "inputs": [],
      "name": "symbol",
      "outputs": [
        {
          "internalType": "string",
          "name": "",
          "type": "string"
        }
      ],
      "stateMutability": "view",
      "type": "function"
    },
    {
      "inputs": [
        {
          "internalType": "uint256",
          "name": "tokenId",
          "type": "uint256"
        }
      ],
      "name": "tokenURI",
      "outputs": [
        {
          "internalType": "string",
          "name": "",
          "type": "string"
        }
      ],
      "stateMutability": "view",
      "type": "function"
    },
    {
      "inputs": [
        {
          "internalType": "address",
          "name": "from",
          "type": "address"
        },
        {
          "internalType": "address",
          "name": "to",
          "type": "address"
        },
        {
          "internalType": "uint256",
          "name": "tokenId",
          "type": "uint256"
        }
      ],
      "name": "transferFrom",
      "outputs": [],
      "stateMutability": "nonpayable",
      "type": "function"
    },
    {
      "inputs": [
        {
          "internalType": "address",
          "name": "newOwner",
          "type": "address"
        }
      ],
      "name": "transferOwnership",
      "outputs": [],
      "stateMutability": "nonpayable",
      "type": "function"
    }
  ],
  "bytecode": "0x60806040523480156200001157600080fd5b5060405162002e0738038062002e07833981810160405281019062000037919062000406565b806040518060400160405280600881526020017f45636f42616467650000000000000000000000000000000000000000000000008152506040518060400160405280600381526020017f45434f00000000000000000000000000000000000000000000000000000000008152508160009081620000b59190620006b2565b508060019081620000c79190620006b2565b505050600073ffffffffffffffffffffffffffffffffffffffff168173ffffffffffffffffffffffffffffffffffffffff16036200013f5760006040517f1e4fbdf7000000000000000000000000000000000000000000000000000000008152600401620001369190620007aa565b60405180910390fd5b62000150816200016960201b60201c565b5062000162816200022f60201b60201c565b50620007c7565b6000600660009054906101000a900473ffffffffffffffffffffffffffffffffffffffff16905081600660006101000a81548173ffffffffffffffffffffffffffffffffffffffff021916908373ffffffffffffffffffffffffffffffffffffffff1602179055508173ffffffffffffffffffffffffffffffffffffffff168173ffffffffffffffffffffffffffffffffffffffff167f8be0079c531659141344cd1fd0a4f28419497f9722a3daafe3b4186f6b6457e060405160405180910390a35050565b6200023f620002c860201b60201c565b600073ffffffffffffffffffffffffffffffffffffffff168173ffffffffffffffffffffffffffffffffffffffff1603620002b45760006040517f1e4fbdf7000000000000000000000000000000000000000000000000000000008152600401620002ab9190620007aa565b60405180910390fd5b620002c5816200016960201b60201c565b50565b620002d86200036a60201b60201c565b73ffffffffffffffffffffffffffffffffffffffff16620002fe6200037260201b60201c565b73ffffffffffffffffffffffffffffffffffffffff161462000368576200032a6200036a60201b60201c565b6040517f118cdaa70000000000000000000000000000000000000000000000000000000081526004016200035f9190620007aa565b60405180910390fd5b565b600033905090565b6000600660009054906101000a900473ffffffffffffffffffffffffffffffffffffffff16905090565b600080fd5b600073ffffffffffffffffffffffffffffffffffffffff82169050919050565b6000620003ce82620003a1565b9050919050565b620003e081620003c1565b8114620003ec57600080fd5b50565b6000815190506200040081620003d5565b92915050565b6000602082840312156200041f576200041e6200039c565b5b60006200042f84828501620003ef565b91505092915050565b600081519050919050565b7f4e487b7100000000000000000000000000000000000000000000000000000000600052604160045260246000fd5b7f4e487b7100000000000000000000000000000000000000000000000000000000600052602260045260246000fd5b60006002820490506001821680620004ba57607f821691505b602082108103620004d057620004cf62000472565b5b50919050565b60008190508160005260206000209050919050565b60006020601f8301049050919050565b600082821b905092915050565b6000600883026200053a7fffffffffffffffffffffffffffffffffffffffffffffffffffffffffffffffff82620004fb565b620005468683620004fb565b95508019841693508086168417925050509392505050565b6000819050919050565b6000819050919050565b6000620005936200058d62000587846200055e565b62000568565b6200055e565b9050919050565b6000819050919050565b620005af8362000572565b620005c7620005be826200059a565b84845462000508565b825550505050565b600090565b620005de620005cf565b620005eb818484620005a4565b505050565b5b81811015620006135762000607600082620005d4565b600181019050620005f1565b5050565b601f82111562000662576200062c81620004d6565b6200063784620004eb565b8101602085101562000647578190505b6200065f6200065685620004eb565b830182620005f0565b50505b505050565b600082821c905092915050565b6000620006876000198460080262000667565b1980831691505092915050565b6000620006a2838362000674565b9150826002028217905092915050565b620006bd8262000438565b67ffffffffffffffff811115620006d957620006d862000443565b5b620006e58254620004a1565b620006f282828562000617565b600060209050601f8311600181146200072a576000841562000715578287015190505b62000721858262000694565b86555062000791565b601f1984166200073a86620004d6565b60005b8281101562000764578489015182556001820191506020850194506020810190506200073d565b8683101562000784578489015162000780601f89168262000674565b8355505b6001600288020188555050505b505050505050565b620007a481620003c1565b82525050565b6000602082019050620007c1600083018462000799565b92915050565b61263080620007d76000396000f3fe608060405234801561001057600080fd5b50600436106101215760003560e01c8063715018a6116100ad578063b88d4fde11610071578063b88d4fde14610307578063c87b56dd14610323578063e5ed988414610353578063e985e9c514610371578063f2fde38b146103a157610121565b8063715018a614610289578063824a5a2f146102935780638da5cb5b146102af57806395d89b41146102cd578063a22cb465146102eb57610121565b806323b872dd116100f457806323b872dd146101c057806342842e0e146101dc5780635dbfd1d5146101f85780636352211e1461022957806370a082311461025957610121565b806301ffc9a71461012657806306fdde0314610156578063081812fc14610174578063095ea7b3146101a4575b600080fd5b610140600480360381019061013b9190611a45565b6103bd565b60405161014d9190611a8d565b60405180910390f35b61015e61049f565b60405161016b9190611b38565b60405180910390f35b61018e60048036038101906101899190611b90565b610531565b60405161019b9190611bfe565b60405180910390f35b6101be60048036038101906101b99190611c45565b61054d565b005b6101da60048036038101906101d59190611c85565b610563565b005b6101f660048036038101906101f19190611c85565b610665565b005b610212600480360381019061020d9190611b90565b610685565b604051610220929190611ce7565b60405180910390f35b610243600480360381019061023e9190611b90565b610731565b6040516102509190611bfe565b60405180910390f35b610273600480360381019061026e9190611d17565b610743565b6040516102809190611d44565b60405180910390f35b6102916107fd565b005b6102ad60048036038101906102a89190611e94565b610811565b005b6102b761088f565b6040516102c49190611bfe565b60405180910390f35b6102d56108b9565b6040516102e29190611b38565b60405180910390f35b61030560048036038101906103009190611f2f565b61094b565b005b610321600480360381019061031c9190612010565b610961565b005b61033d60048036038101906103389190611b90565b610986565b60405161034a9190611b38565b60405180910390f35b61035b6109ef565b6040516103689190611d44565b60405180910390f35b61038b60048036038101906103869190612093565b6109f5565b6040516103989190611a8d565b60405180910390f35b6103bb60048036038101906103b69190611d17565b610a89565b005b60007f80ac58cd000000000000000000000000000000000000000000000000000000007bffffffffffffffffffffffffffffffffffffffffffffffffffffffff1916827bffffffffffffffffffffffffffffffffffffffffffffffffffffffff1916148061048857507f5b5e139f000000000000000000000000000000000000000000000000000000007bffffffffffffffffffffffffffffffffffffffffffffffffffffffff1916827bffffffffffffffffffffffffffffffffffffffffffffffffffffffff1916145b80610498575061049782610b0f565b5b9050919050565b6060600080546104ae90612102565b80601f01602080910402602001604051908101604052809291908181526020018280546104da90612102565b80156105275780601f106104fc57610100808354040283529160200191610527565b820191906000526020600020905b81548152906001019060200180831161050a57829003601f168201915b5050505050905090565b600061053c82610b79565b5061054682610c01565b9050919050565b61055f828261055a610c3e565b610c46565b5050565b600073ffffffffffffffffffffffffffffffffffffffff168273ffffffffffffffffffffffffffffffffffffffff16036105d55760006040517f64a0ae920000000000000000000000000000000000000000000000000000000081526004016105cc9190611bfe565b60405180910390fd5b60006105e983836105e4610c3e565b610c58565b90508373ffffffffffffffffffffffffffffffffffffffff168173ffffffffffffffffffffffffffffffffffffffff161461065f578382826040517f64283d7b00000000000000000000000000000000000000000000000000000000815260040161065693929190612133565b60405180910390fd5b50505050565b61068083838360405180602001604052806000815250610961565b505050565b60086020528060005260406000206000915090508060000180546106a890612102565b80601f01602080910402602001604051908101604052809291908181526020018280546106d490612102565b80156107215780601f106106f657610100808354040283529160200191610721565b820191906000526020600020905b81548152906001019060200180831161070457829003601f168201915b5050505050908060010154905082565b600061073c82610b79565b9050919050565b60008073ffffffffffffffffffffffffffffffffffffffff168273ffffffffffffffffffffffffffffffffffffffff16036107b65760006040517f89c62b640000000000000000000000000000000000000000000000000000000081526004016107ad9190611bfe565b60405180910390fd5b600360008373ffffffffffffffffffffffffffffffffffffffff1673ffffffffffffffffffffffffffffffffffffffff168152602001908152602001600020549050919050565b610805610e72565b61080f6000610ef9565b565b610819610e72565b60006007600081548092919061082e90612199565b91905055905061083e8482610fbf565b60405180604001604052808481526020018381525060086000838152602001908152602001600020600082015181600001908161087b919061238d565b506020820151816001015590505050505050565b6000600660009054906101000a900473ffffffffffffffffffffffffffffffffffffffff16905090565b6060600180546108c890612102565b80601f01602080910402602001604051908101604052809291908181526020018280546108f490612102565b80156109415780601f1061091657610100808354040283529160200191610941565b820191906000526020600020905b81548152906001019060200180831161092457829003601f168201915b5050505050905090565b61095d610956610c3e565b8383610fdd565b5050565b61096c848484610563565b610980610977610c3e565b8585858561114c565b50505050565b606061099182610b79565b50600061099c6112fd565b905060008151116109bc57604051806020016040528060008152506109e7565b806109c684611314565b6040516020016109d792919061249b565b6040516020818303038152906040525b915050919050565b60075481565b6000600560008473ffffffffffffffffffffffffffffffffffffffff1673ffffffffffffffffffffffffffffffffffffffff16815260200190815260200160002060008373ffffffffffffffffffffffffffffffffffffffff1673ffffffffffffffffffffffffffffffffffffffff16815260200190815260200160002060009054906101000a900460ff16905092915050565b610a91610e72565b600073ffffffffffffffffffffffffffffffffffffffff168173ffffffffffffffffffffffffffffffffffffffff1603610b035760006040517f1e4fbdf7000000000000000000000000000000000000000000000000000000008152600401610afa9190611bfe565b60405180910390fd5b610b0c81610ef9565b50565b60007f01ffc9a7000000000000000000000000000000000000000000000000000000007bffffffffffffffffffffffffffffffffffffffffffffffffffffffff1916827bffffffffffffffffffffffffffffffffffffffffffffffffffffffff1916149050919050565b600080610b85836113e2565b9050600073ffffffffffffffffffffffffffffffffffffffff168173ffffffffffffffffffffffffffffffffffffffff1603610bf857826040517f7e273289000000000000000000000000000000000000000000000000000000008152600401610bef9190611d44565b60405180910390fd5b80915050919050565b60006004600083815260200190815260200160002060009054906101000a900473ffffffffffffffffffffffffffffffffffffffff169050919050565b600033905090565b610c53838383600161141f565b505050565b600080610c64846113e2565b9050600073ffffffffffffffffffffffffffffffffffffffff168373ffffffffffffffffffffffffffffffffffffffff1614610ca657610ca58184866115e4565b5b600073ffffffffffffffffffffffffffffffffffffffff168173ffffffffffffffffffffffffffffffffffffffff1614610d3757610ce860008560008061141f565b6001600360008373ffffffffffffffffffffffffffffffffffffffff1673ffffffffffffffffffffffffffffffffffffffff168152602001908152602001600020600082825403925050819055505b600073ffffffffffffffffffffffffffffffffffffffff168573ffffffffffffffffffffffffffffffffffffffff1614610dba576001600360008773ffffffffffffffffffffffffffffffffffffffff1673ffffffffffffffffffffffffffffffffffffffff168152602001908152602001600020600082825401925050819055505b846002600086815260200190815260200160002060006101000a81548173ffffffffffffffffffffffffffffffffffffffff021916908373ffffffffffffffffffffffffffffffffffffffff160217905550838573ffffffffffffffffffffffffffffffffffffffff168273ffffffffffffffffffffffffffffffffffffffff167fddf252ad1be2c89b69c2b068fc378daa952ba7f163c4a11628f55a4df523b3ef60405160405180910390a4809150509392505050565b610e7a610c3e565b73ffffffffffffffffffffffffffffffffffffffff16610e9861088f565b73ffffffffffffffffffffffffffffffffffffffff1614610ef757610ebb610c3e565b6040517f118cdaa7000000000000000000000000000000000000000000000000000000008152600401610eee9190611bfe565b60405180910390fd5b565b6000600660009054906101000a900473ffffffffffffffffffffffffffffffffffffffff16905081600660006101000a81548173ffffffffffffffffffffffffffffffffffffffff021916908373ffffffffffffffffffffffffffffffffffffffff1602179055508173ffffffffffffffffffffffffffffffffffffffff168173ffffffffffffffffffffffffffffffffffffffff167f8be0079c531659141344cd1fd0a4f28419497f9722a3daafe3b4186f6b6457e060405160405180910390a35050565b610fd98282604051806020016040528060008152506116a8565b5050565b600073ffffffffffffffffffffffffffffffffffffffff168273ffffffffffffffffffffffffffffffffffffffff160361104e57816040517f5b08ba180000000000000000000000000000000000000000000000000000000081526004016110459190611bfe565b60405180910390fd5b80600560008573ffffffffffffffffffffffffffffffffffffffff1673ffffffffffffffffffffffffffffffffffffffff16815260200190815260200160002060008473ffffffffffffffffffffffffffffffffffffffff1673ffffffffffffffffffffffffffffffffffffffff16815260200190815260200160002060006101000a81548160ff0219169083151502179055508173ffffffffffffffffffffffffffffffffffffffff168373ffffffffffffffffffffffffffffffffffffffff167f17307eab39ab6107e8899845ad3d59bd9653f200f220920489ca2b5937696c318360405161113f9190611a8d565b60405180910390a3505050565b60008373ffffffffffffffffffffffffffffffffffffffff163b11156112f6578273ffffffffffffffffffffffffffffffffffffffff1663150b7a02868685856040518563ffffffff1660e01b81526004016111ab9493929190612514565b6020604051808303816000875af19250505080156111e757506040513d601f19601f820116820180604052508101906111e49190612575565b60015b61126b573d8060008114611217576040519150601f19603f3d011682016040523d82523d6000602084013e61121c565b606091505b50600081510361126357836040517f64a0ae9200000000000000000000000000000000000000000000000000000000815260040161125a9190611bfe565b60405180910390fd5b805181602001fd5b63150b7a0260e01b7bffffffffffffffffffffffffffffffffffffffffffffffffffffffff1916817bffffffffffffffffffffffffffffffffffffffffffffffffffffffff1916146112f457836040517f64a0ae920000000000000000000000000000000000000000000000000000000081526004016112eb9190611bfe565b60405180910390fd5b505b5050505050565b606060405180602001604052806000815250905090565b606060006001611323846116cc565b01905060008167ffffffffffffffff81111561134257611341611d69565b5b6040519080825280601f01601f1916602001820160405280156113745781602001600182028036833780820191505090505b509050600082602001820190505b6001156113d7578080600190039150507f3031323334353637383961626364656600000000000000000000000000000000600a86061a8153600a85816113cb576113ca6125a2565b5b04945060008503611382575b819350505050919050565b60006002600083815260200190815260200160002060009054906101000a900473ffffffffffffffffffffffffffffffffffffffff169050919050565b80806114585750600073ffffffffffffffffffffffffffffffffffffffff168273ffffffffffffffffffffffffffffffffffffffff1614155b1561158c57600061146884610b79565b9050600073ffffffffffffffffffffffffffffffffffffffff168373ffffffffffffffffffffffffffffffffffffffff16141580156114d357508273ffffffffffffffffffffffffffffffffffffffff168173ffffffffffffffffffffffffffffffffffffffff1614155b80156114e657506114e481846109f5565b155b1561152857826040517fa9fbf51f00000000000000000000000000000000000000000000000000000000815260040161151f9190611bfe565b60405180910390fd5b811561158a57838573ffffffffffffffffffffffffffffffffffffffff168273ffffffffffffffffffffffffffffffffffffffff167f8c5be1e5ebec7d5bd14f71427d1e84f3dd0314c0f7b2291e5b200ac8c7c3b92560405160405180910390a45b505b836004600085815260200190815260200160002060006101000a81548173ffffffffffffffffffffffffffffffffffffffff021916908373ffffffffffffffffffffffffffffffffffffffff16021790555050505050565b6115ef83838361181f565b6116a357600073ffffffffffffffffffffffffffffffffffffffff168373ffffffffffffffffffffffffffffffffffffffff160361166457806040517f7e27328900000000000000000000000000000000000000000000000000000000815260040161165b9190611d44565b60405180910390fd5b81816040517f177e802f00000000000000000000000000000000000000000000000000000000815260040161169a9291906125d1565b60405180910390fd5b505050565b6116b283836118e0565b6116c76116bd610c3e565b600085858561114c565b505050565b600080600090507a184f03e93ff9f4daa797ed6e38ed64bf6a1f010000000000000000831061172a577a184f03e93ff9f4daa797ed6e38ed64bf6a1f01000000000000000083816117205761171f6125a2565b5b0492506040810190505b6d04ee2d6d415b85acef81000000008310611767576d04ee2d6d415b85acef8100000000838161175d5761175c6125a2565b5b0492506020810190505b662386f26fc10000831061179657662386f26fc10000838161178c5761178b6125a2565b5b0492506010810190505b6305f5e10083106117bf576305f5e10083816117b5576117b46125a2565b5b0492506008810190505b61271083106117e45761271083816117da576117d96125a2565b5b0492506004810190505b6064831061180757606483816117fd576117fc6125a2565b5b0492506002810190505b600a8310611816576001810190505b80915050919050565b60008073ffffffffffffffffffffffffffffffffffffffff168373ffffffffffffffffffffffffffffffffffffffff16141580156118d757508273ffffffffffffffffffffffffffffffffffffffff168473ffffffffffffffffffffffffffffffffffffffff161480611898575061189784846109f5565b5b806118d657508273ffffffffffffffffffffffffffffffffffffffff166118be83610c01565b73ffffffffffffffffffffffffffffffffffffffff16145b5b90509392505050565b600073ffffffffffffffffffffffffffffffffffffffff168273ffffffffffffffffffffffffffffffffffffffff16036119525760006040517f64a0ae920000000000000000000000000000000000000000000000000000000081526004016119499190611bfe565b60405180910390fd5b600061196083836000610c58565b9050600073ffffffffffffffffffffffffffffffffffffffff168173ffffffffffffffffffffffffffffffffffffffff16146119d45760006040517f73c6ac6e0000000000000000000000000000000000000000000000000000000081526004016119cb9190611bfe565b60405180910390fd5b505050565b6000604051905090565b600080fd5b600080fd5b60007fffffffff0000000000000000000000000000000000000000000000000000000082169050919050565b611a22816119ed565b8114611a2d57600080fd5b50565b600081359050611a3f81611a19565b92915050565b600060208284031215611a5b57611a5a6119e3565b5b6000611a6984828501611a30565b91505092915050565b60008115159050919050565b611a8781611a72565b82525050565b6000602082019050611aa26000830184611a7e565b92915050565b600081519050919050565b600082825260208201905092915050565b60005b83811015611ae2578082015181840152602081019050611ac7565b60008484015250505050565b6000601f19601f8301169050919050565b6000611b0a82611aa8565b611b148185611ab3565b9350611b24818560208601611ac4565b611b2d81611aee565b840191505092915050565b60006020820190508181036000830152611b528184611aff565b905092915050565b6000819050919050565b611b6d81611b5a565b8114611b7857600080fd5b50565b600081359050611b8a81611b64565b92915050565b600060208284031215611ba657611ba56119e3565b5b6000611bb484828501611b7b565b91505092915050565b600073ffffffffffffffffffffffffffffffffffffffff82169050919050565b6000611be882611bbd565b9050919050565b611bf881611bdd565b82525050565b6000602082019050611c136000830184611bef565b92915050565b611c2281611bdd565b8114611c2d57600080fd5b50565b600081359050611c3f81611c19565b92915050565b60008060408385031215611c5c57611c5b6119e3565b5b6000611c6a85828601611c30565b9250506020611c7b85828601611b7b565b9150509250929050565b600080600060608486031215611c9e57611c9d6119e3565b5b6000611cac86828701611c30565b9350506020611cbd86828701611c30565b9250506040611cce86828701611b7b565b9150509250925092565b611ce181611b5a565b82525050565b60006040820190508181036000830152611d018185611aff565b9050611d106020830184611cd8565b9392505050565b600060208284031215611d2d57611d2c6119e3565b5b6000611d3b84828501611c30565b91505092915050565b6000602082019050611d596000830184611cd8565b92915050565b600080fd5b600080fd5b7f4e487b7100000000000000000000000000000000000000000000000000000000600052604160045260246000fd5b611da182611aee565b810181811067ffffffffffffffff82111715611dc057611dbf611d69565b5b80604052505050565b6000611dd36119d9565b9050611ddf8282611d98565b919050565b600067ffffffffffffffff821115611dff57611dfe611d69565b5b611e0882611aee565b9050602081019050919050565b82818337600083830152505050565b6000611e37611e3284611de4565b611dc9565b905082815260208101848484011115611e5357611e52611d64565b5b611e5e848285611e15565b509392505050565b600082601f830112611e7b57611e7a611d5f565b5b8135611e8b848260208601611e24565b91505092915050565b600080600060608486031215611ead57611eac6119e3565b5b6000611ebb86828701611c30565b935050602084013567ffffffffffffffff811115611edc57611edb6119e8565b5b611ee886828701611e66565b9250506040611ef986828701611b7b565b9150509250925092565b611f0c81611a72565b8114611f1757600080fd5b50565b600081359050611f2981611f03565b92915050565b60008060408385031215611f4657611f456119e3565b5b6000611f5485828601611c30565b9250506020611f6585828601611f1a565b9150509250929050565b600067ffffffffffffffff821115611f8a57611f89611d69565b5b611f9382611aee565b9050602081019050919050565b6000611fb3611fae84611f6f565b611dc9565b905082815260208101848484011115611fcf57611fce611d64565b5b611fda848285611e15565b509392505050565b600082601f830112611ff757611ff6611d5f565b5b8135612007848260208601611fa0565b91505092915050565b6000806000806080858703121561202a576120296119e3565b5b600061203887828801611c30565b945050602061204987828801611c30565b935050604061205a87828801611b7b565b925050606085013567ffffffffffffffff81111561207b5761207a6119e8565b5b61208787828801611fe2565b91505092959194509250565b600080604083850312156120aa576120a96119e3565b5b60006120b885828601611c30565b92505060206120c985828601611c30565b9150509250929050565b7f4e487b7100000000000000000000000000000000000000000000000000000000600052602260045260246000fd5b6000600282049050600182168061211a57607f821691505b60208210810361212d5761212c6120d3565b5b50919050565b60006060820190506121486000830186611bef565b6121556020830185611cd8565b6121626040830184611bef565b949350505050565b7f4e487b7100000000000000000000000000000000000000000000000000000000600052601160045260246000fd5b60006121a482611b5a565b91507fffffffffffffffffffffffffffffffffffffffffffffffffffffffffffffffff82036121d6576121d561216a565b5b600182019050919050565b60008190508160005260206000209050919050565b60006020601f8301049050919050565b600082821b905092915050565b6000600883026122437fffffffffffffffffffffffffffffffffffffffffffffffffffffffffffffffff82612206565b61224d8683612206565b95508019841693508086168417925050509392505050565b6000819050919050565b600061228a61228561228084611b5a565b612265565b611b5a565b9050919050565b6000819050919050565b6122a48361226f565b6122b86122b082612291565b848454612213565b825550505050565b600090565b6122cd6122c0565b6122d881848461229b565b505050565b5b818110156122fc576122f16000826122c5565b6001810190506122de565b5050565b601f82111561234157612312816121e1565b61231b846121f6565b8101602085101561232a578190505b61233e612336856121f6565b8301826122dd565b50505b505050565b600082821c905092915050565b600061236460001984600802612346565b1980831691505092915050565b600061237d8383612353565b9150826002028217905092915050565b61239682611aa8565b67ffffffffffffffff8111156123af576123ae611d69565b5b6123b98254612102565b6123c4828285612300565b600060209050601f8311600181146123f757600084156123e5578287015190505b6123ef8582612371565b865550612457565b601f198416612405866121e1565b60005b8281101561242d57848901518255600182019150602085019450602081019050612408565b8683101561244a5784890151612446601f891682612353565b8355505b6001600288020188555050505b505050505050565b600081905092915050565b600061247582611aa8565b61247f818561245f565b935061248f818560208601611ac4565b80840191505092915050565b60006124a7828561246a565b91506124b3828461246a565b91508190509392505050565b600081519050919050565b600082825260208201905092915050565b60006124e6826124bf565b6124f081856124ca565b9350612500818560208601611ac4565b61250981611aee565b840191505092915050565b60006080820190506125296000830187611bef565b6125366020830186611bef565b6125436040830185611cd8565b818103606083015261255581846124db565b905095945050505050565b60008151905061256f81611a19565b92915050565b60006020828403121561258b5761258a6119e3565b5b600061259984828501612560565b91505092915050565b7f4e487b7100000000000000000000000000000000000000000000000000000000600052601260045260246000fd5b60006040820190506125e66000830185611bef565b6125f36020830184611cd8565b939250505056fea264697066735822122070b505208c9c3e02049f5abdb8511f2ef41e975d49fef5729608500f90018eb164736f6c63430008140033",
  "linkReferences": {},
  "deployedLinkReferences": {}
}